:100000000C945B010C9429060C94FE050C94D3050A
:100010000C94A8050C947D050C9452050C942705AE
:100020000C94FC040C948C010C948C010C948C01A9
:100030000C948C010C948C010C948C010C948C010C
:100040000C948C010C948C010C948C010C948C01FC
:100050000C948C010C948C010C948C010C94B204C3
:100060000C948C010C947E060C9454060C948C0118
:100070000C948C010C948C010C948C010C948C01CC
:100080000C948C010C948C010C948C010C948C01BC
:100090000C948C010C948C010C948C010C948C01AC
:1000A0000C948C010C948C010C948C010C948C019C
:1000B0000C948C010C948C010C948C010C948C018C
:1000C0000C948C010C948C010C948C010C948C017C
:1000D0000C948C010C948C010C948C010C948C016C
:1000E0000C948C010C94B2010C9428030C94C30260
:1000F0000C9450030C94CB010C94C1010C94BE02DF
:100100000C9456030C94B7020C94DF010C94BE01BE
:100110000C94E7010C941E030C9455030C94B60147
:100120000C94F1010C94ED010C94A6030C94FB02C9
:100130000C94D1010C940F030C9432030C94BA016B
:100140000C94CD020C94EC030C9439040C944603EB
:100150000C94F1020C9483030C94E1020C94B4030C
:100160000C94E3010C94E9020C94D9010C94D7028D
:100170000C94B8080C948A040C94C7010C94D50113
:100180000C94EC010C943C030C9492030C94AC0181
:100190000C94050300002100240027002A002D00F4
:1001A0003000330001010000040107010A010000D2
:1001B0002200250028002B002E003100340002010F
:1001C0000000050108010B010000200023002600AB
:1001D00029002C002F00320000010000030106015D
:1001E00009010505050507050808080802020202BD
:1001F0000A0A0808040404040101010101010101C3
:100200000303030303030303040707070C0C0C0C8D
:100210000C0C0C0C02020202060606060606060676
:100220000B0B0B0B0B0B0B0B010210202008081003
:100230002040102040800201020108040201010256
:10024000040810204080804020100804020180042F
:10025000020180402010080402010804020101028A
:100260000408102040800102040810204080000093
:100270000A0B02090C0D0E08070304010000000020
:10028000000000000000000000000000000000006E
:10029000000000000000000000001211100000002B
:1002A000000000000000000000000000000000004E
:1002B00000000000B80811241FBECFEFD1E2DEBF5E
:1002C000CDBF00E00CBF12E0A0E0B2E0E0EDF6E14F
:1002D00000E00BBF02C007900D92A232B107D9F720
:1002E00022E0A2E2B2E001C01D92A93EB207E1F70E
:1002F00011E0CBE5D1E000E006C021970109802F95
:10030000FE010E94550BCA35D10780E00807A9F706
:100310000E94B4060C94660B0C940000815082314C
:1003200008F05AC0E82FF0E08827E656FE4F8F4FBE
:100330000C94550BBA01BE01AC01B201B601EC013F
:10034000C101C701CB01D101D501D901DF01E30111
:10035000EC01E701ED01F101809180008F7780933E
:1003600080000895809180008F7DF9CF809180007A
:10037000877FF5CF84B58F7784BD089584B58F7D51
:10038000FBCF8091B0008F778093B000089580916B
:10039000B0008F7DF9CF809190008F77809390008F
:1003A0000895809190008F7DF9CF80919000877F94
:1003B000F5CF8091A0008F778093A0000895809161
:1003C000A0008F7DF9CF8091A000877FF5CF80912D
:1003D00020018F77809320010895809120018F7DE7
:1003E000F9CF80912001877FF5CFCF93DF93E1E7AD
:1003F000F2E08491EBE2F2E0D491E5EEF1E0C49119
:10040000CC23A1F081110E948E01EC2FF0E0EE0FC1
:10041000FF1FE853FE4FA591B491EC91ED2381E0CD
:1004200090E009F480E0DF91CF91089580E090E0C2
:10043000FACF1F93CF93DF93282F30E0F901E259D1
:10044000FD4F8491F901E85DFD4FD491F901EE5122
:10045000FE4FC491CC23A9F0162F81110E948E016A
:10046000EC2FF0E0EE0FFF1FE255FE4FA591B49187
:100470008FB7F894EC91111108C0D095DE23DC936E
:100480008FBFDF91CF911F910895DE2BF8CFCF93CF
:10049000DF9390E0FC01E85DFD4F24918E519E4F6B
:1004A000FC0184918823C9F090E0880F991FFC011A
:1004B000EC56FE4FA591B491FC01E255FE4FC5915B
:1004C000D49161110DC09FB7F8948C91209582232F
:1004D0008C938881282328839FBFDF91CF91089533
:1004E000623051F49FB7F8943C91822F809583231A
:1004F0008C93E8812E2BEFCF8FB7F894EC912E2BB5
:100500002C938FBFEACFCF93DF93EC0161E086E0BD
:100510000E944702209731F460E086E0DF91CF919E
:100520000C941902CF3FD10511F461E0F6CFE4E756
:10053000F2E0E491E150E23108F0B2C0F0E0882747
:10054000EB55FD4F8F4F0C94550BB702BE02C30203
:10055000CD02D7025003E102E902F102FB020503DA
:100560000F031E032803500332033C03460384B5E4
:10057000806884BDC7BDDF91CF91089584B5806246
:1005800084BDC8BDF8CF80918000806880938000D2
:10059000D0938900C0938800EECF80918000806264
:1005A00080938000D0938B00C0938A00E4CF809129
:1005B0008000886080938000D0938D00C0938C0071
:1005C000DACF8091B00080688093B000C093B30010
:1005D000D2CF8091B00080628093B000C093B4000D
:1005E000CACF80919000806880939000D09399004A
:1005F000C0939800C0CF809190008062809390005B
:10060000D0939B00C0939A00B6CF809190008860F1
:1006100080939000D0939D00C0939C00ACCF8091BC
:10062000A00080688093A0008091A0008F7B8093C1
:10063000A000D093A900C093A8009DCF8091A000F6
:1006400080628093A000D093AB00C093AA0093CFA8
:100650008091A00088608093A000D093AD00C093EB
:10066000AC0089CF80912001806880932001D093D5
:100670002901C09328017FCF80912001806280935F
:100680002001D0932B01C0932A0175CF80912001C6
:10069000886080932001D0932D01C0932C016BCFF3
:1006A000C038D1050CF041CF37CF0895AF92BF923B
:1006B000CF92DF92EF92FF920F931F93CF93DF932E
:1006C0006C017B018B01040F151FEB015E01AE185D
:1006D000BF08C017D10759F06991D601ED91FC917F
:1006E0000190F081E02DC6011995892B79F7C5019C
:1006F000DF91CF911F910F91FF90EF90DF90CF90FE
:10070000BF90AF900895FC01538D448D252F30E0AC
:10071000842F90E0821B930B541710F0CF9608950E
:1007200001970895FC01918D828D981761F0A28D3B
:10073000AE0FBF2FB11D5D968C91928D9F5F9F7301
:10074000928F90E008958FEF9FEF0895FC01918DB7
:10075000828D981731F0828DE80FF11D858D90E024
:1007600008958FEF9FEF0895FC01918D228D892FC1
:1007700090E0805C9F4F821B91098F7399270895A9
:1007800082E292E00E94B40321E0892B09F420E088
:10079000822F0895FC01A48DA80FB92FB11DA35A73
:1007A000BF4F2C91848D90E001968F739927848F91
:1007B000A689B7892C93A089B1898C9183708064B4
:1007C0008C93938D848D981306C00288F389E02D55
:1007D00080818F7D80830895EF92FF920F931F9306
:1007E000CF93DF93EC0181E0888F9B8D8C8D9813E4
:1007F0001AC0E889F989808185FF15C09FB7F894F0
:10080000EE89FF896083E889F9898081837080643B
:1008100080839FBF81E090E0DF91CF911F910F9186
:10082000FF90EF900895F62E0B8D10E00F5F1F4F95
:100830000F731127E02E8C8D8E110CC00FB607FCA4
:10084000FACFE889F989808185FFF5CFCE010E9432
:10085000CA03F1CFEB8DEC0FFD2FF11DE35AFF4FD3
:10086000F0829FB7F8940B8FEA89FB8980818062C0
:10087000CFCFCF93DF93EC01888D8823B9F0AA897D
:10088000BB89E889F9898C9185FD03C0808186FD4B
:100890000DC00FB607FCF7CF8C9185FFF2CF80819A
:1008A00085FFEDCFCE010E94CA03E9CFDF91CF9142
:1008B000089580E090E0892B29F00E94C003811107
:1008C0000E94000080E090E0892B49F080E090E0F9
:1008D000892B29F00E94000081110E94000080E015
:1008E00090E0892B49F080E090E0892B29F00E946C
:1008F000000081110E94000080E090E0892B49F007
:1009000080E090E0892B29F00E94000081110C9476
:10091000000008950E94F501892BA1F48091CB027B
:100920009091CC02A091CD02B091CE020196A11D72
:10093000B11D8093CB029093CC02A093CD02B093D3
:10094000CE0208950E94F5010197D9F78091CB025C
:100950009091CC02A091CD02B091CE020197A10955
:10096000B109E7CF1F920F920FB60F9211242F9368
:100970003F938F939F93AF93BF938091E5029091A4
:10098000E602A091E702B091E8023091E40220E390
:10099000230F2D3758F54096A11DB11D2093E40279
:1009A0008093E5029093E602A093E702B093E802F9
:1009B0008091E0029091E102A091E202B091E30205
:1009C0000196A11DB11D8093E0029093E102A093D6
:1009D000E202B093E302BF91AF919F918F913F915B
:1009E0002F910F900FBE0F901F90189523EB230FA0
:1009F0004196A11DB11DD2CF1F920F920FB60F923B
:100A000011240BB60F922F933F934F935F936F93E5
:100A10007F938F939F93AF93BF93EF93FF93E09157
:100A20000E02F0910F021995FF91EF91BF91AF91D6
:100A30009F918F917F916F915F914F913F912F91F6
:100A40000F900BBE0F900FBE0F901F9018951F9226
:100A50000F920FB60F9211240BB60F922F933F9364
:100A60004F935F936F937F938F939F93AF93BF93B6
:100A7000EF93FF93E0910C02F0910D021995FF9115
:100A8000EF91BF91AF919F918F917F916F915F9106
:100A90004F913F912F910F900BBE0F900FBE0F9073
:100AA0001F9018951F920F920FB60F9211240BB63C
:100AB0000F922F933F934F935F936F937F938F93F7
:100AC0009F93AF93BF93EF93FF93E0910202F09156
:100AD00003021995FF91EF91BF91AF919F918F9173
:100AE0007F916F915F914F913F912F910F900BBE2E
:100AF0000F900FBE0F901F9018951F920F920FB678
:100B00000F9211240BB60F922F933F934F935F9345
:100B10006F937F938F939F93AF93BF93EF93FF93C5
:100B2000E0910002F09101021995FF91EF91BF91C0
:100B3000AF919F918F917F916F915F914F913F9175
:100B40002F910F900BBE0F900FBE0F901F90189516
:100B50001F920F920FB60F9211240BB60F922F9384
:100B60003F934F935F936F937F938F939F93AF9335
:100B7000BF93EF93FF93E0910A02F0910B02199556
:100B8000FF91EF91BF91AF919F918F917F916F9165
:100B90005F914F913F912F910F900BBE0F900FBE21
:100BA0000F901F9018951F920F920FB60F9211245D
:100BB0000BB60F922F933F934F935F936F937F9357
:100BC0008F939F93AF93BF93EF93FF93E0910802AE
:100BD000F09109021995FF91EF91BF91AF919F910B
:100BE0008F917F916F915F914F913F912F910F90D6
:100BF0000BBE0F900FBE0F901F9018951F920F9273
:100C00000FB60F9211240BB60F922F933F934F9371
:100C10005F936F937F938F939F93AF93BF93EF9364
:100C2000FF93E0910602F09107021995FF91EF9171
:100C3000BF91AF919F918F917F916F915F914F91F4
:100C40003F912F910F900BBE0F900FBE0F901F90F2
:100C500018951F920F920FB60F9211240BB60F9298
:100C60002F933F934F935F936F937F938F939F93B4
:100C7000AF93BF93EF93FF93E0910402F0910502CD
:100C80001995FF91EF91BF91AF919F918F917F91B6
:100C90006F915F914F913F912F910F900BBE0F90ED
:100CA0000FBE0F901F9018951F920F920FB60F92C4
:100CB00011240BB60F922F933F934F935F936F9333
:100CC0007F938F939F93AF93BF93EF93FF9382E2B2
:100CD00092E00E94CA03FF91EF91BF91AF919F9163
:100CE0008F917F916F915F914F913F912F910F90D5
:100CF0000BBE0F900FBE0F901F9018951F920F9272
:100D00000FB60F9211240BB60F922F938F939F93D0
:100D1000EF93FF93E0913202F09133028081E091F2
:100D20003802F091390282FD1DC0908180913B0212
:100D30008F5F8F7320913C02821741F0E0913B025C
:100D4000F0E0EE5DFD4F958F80933B02FF91EF91B8
:100D50009F918F912F910F900BBE0F900FBE0F9010
:100D60001F9018958081F2CFCF93DF93CDB7DEB778
:100D70002C970FB6F894DEBF0FBECDBF789484B524
:100D8000826084BD84B5816084BD85B5826085BD87
:100D900085B5816085BD80916E00816080936E0015
:100DA0001092810080918100826080938100809107
:100DB00080008160809380008091B1008460809386
:100DC000B1008091B00081608093B000809191006B
:100DD0008260809391008091910081608093910066
:100DE000809190008160809390008091A10082604A
:100DF0008093A1008091A10081608093A1008091E7
:100E0000A00081608093A000809121018260809386
:100E10002101809121018160809321018091200135
:100E200081608093200180917A008B7F80937A008B
:100E300080917A00826080937A0080917A0081604C
:100E400080937A0080917A00806880937A00109273
:100E5000C1001092CB021092CC021092CD021092DF
:100E6000CE0261E084E00E94470261E085E00E94DA
:100E7000470261E086E00E94470262E082E00E9451
:100E8000470260E083E00E9447028AE894E0909382
:100E900001028093000280916A008C7F82608093BF
:100EA0006A00EC9AE0913202F091330282E0808392
:100EB000E0912E02F0912F021082E0913002F09129
:100EC00031028CE0808310923A02E0913602F09178
:100ED000370286E08083E0913402F0913502808110
:100EE00080618083E0913402F091350280818860D6
:100EF0008083E0913402F0913502808180688083A4
:100F0000E0913402F091350280818F7D808308E684
:100F100011E020E030E00093DC021093DD0220932A
:100F2000DE023093DF022FB7F8948091E5029091B2
:100F3000E602A091E702B091E8022FBF8C019D016B
:100F400040E050E0BA0189831A83AB833C834D8330
:100F50005E836F8378879C014B815C8160E070E0E9
:100F600080E090E0A090CF02B090D002C090D1027B
:100F7000D090D202E090D302F090D4020091D5023A
:100F80001091D6020E945D0B0E94300A20E030E0F2
:100F90004AE754E40E9452092B013C018090DC0294
:100FA0009090DD02A090DE02B090DF028091CB0233
:100FB0009091CC02A091CD02B091CE02881A990AEC
:100FC000AA0ABB0A8092D8029092D902A092DA02B1
:100FD000B092DB02C501B4010E94F5096B017C01EE
:100FE00020E030E0A9010E94C40AA30192010E94FE
:100FF000C40A2091C7023091C8024091C9025091A1
:10100000CA020E94E60869877A878B879C8760936B
:10101000C7027093C8028093C9029093CA0280915C
:10102000C3029091C402A091C502B091C602A5016D
:101030009401281B390B4A0B5B0BCA01B9010E94B2
:10104000F509A30192010E9452092DEC3CEC4CECF5
:101050005CE30E94C40A2B013C0129853A854B853B
:101060005C85C701B6010E94E6089B01AC01C30183
:10107000B2010E94E6086B017C0120E030E0A9018A
:101080000E94BF0A181624F0F7FAF094F7F8F094CB
:1010900020E030E04FE753E4C701B6010E94BF0AE9
:1010A00018160CF43FC0C092BF02D092C002E0926A
:1010B000C102F092C2026091BF027091C0028091A1
:1010C000C1029091C2020E94C4096093D702398183
:1010D0003093CF024A814093D0025B815093D1027A
:1010E0007C817093D2021092D3021092D40210929B
:1010F000D5021092D6028092C3029092C402A092AE
:10110000C502B092C602181419041A041B04BCF4D8
:10111000862F90E00E94830261E085E00E94190220
:1011200060E01AC080E090E0AFE7B3E48093BF02D4
:101130009093C002A093C102B093C202BCCF892891
:101140008A288B2879F0862F90E00E94830260E045
:1011500085E00E94190261E084E00E9419020E9469
:101160005904D5CE90E080E00E94830260E0D5CFA4
:10117000E2E2F2E01382128288EE93E0A0E0B0E0B7
:1011800084839583A683B78384E192E091838083EF
:1011900085EC90E09587848784EC90E0978786873C
:1011A00080EC90E0918B808B81EC90E0938B828B34
:1011B00082EC90E0958B848B86EC90E0978B868B0D
:1011C000118E128E138E148E08955058BB27AA27A5
:1011D0000E94FD080C94850A0E94770A38F00E944C
:1011E0007E0A20F039F49F3F19F426F40C94740A17
:1011F0000EF4E095E7FB0C946E0AE92F0E94960A24
:1012000058F3BA17620773078407950720F079F43B
:10121000A6F50C94B80A0EF4E0950B2EBA2FA02D6B
:101220000B01B90190010C01CA01A0011124FF2793
:10123000591B99F0593F50F4503E68F11A16F0408E
:10124000A22F232F342F4427585FF3CF469537958D
:101250002795A795F0405395C9F77EF41F16BA0B52
:10126000620B730B840BBAF09150A1F0FF0FBB1F00
:10127000661F771F881FC2F70EC0BA0F621F731F49
:10128000841F48F4879577956795B795F7959E3FA6
:1012900008F0B0CF9395880F08F09927EE0F979537
:1012A000879508950E9466090C94850A0E947E0A1B
:1012B00058F00E94770A40F029F45F3F29F00C941F
:1012C0006E0A51110C94B90A0C94740A0E94960A81
:1012D00068F39923B1F3552391F3951B550BBB2765
:1012E000AA2762177307840738F09F5F5F4F220FAA
:1012F000331F441FAA1FA9F335D00E2E3AF0E0E8A1
:1013000032D091505040E695001CCAF72BD0FE2FEA
:1013100029D0660F771F881FBB1F2617370748077E
:10132000AB07B0E809F0BB0B802DBF01FF27935836
:101330005F4F3AF09E3F510578F00C946E0A0C9482
:10134000B90A5F3FE4F3983ED4F3869577956795A5
:10135000B795F7959F5FC9F7880F911D969587956B
:1013600097F90895E1E0660F771F881FBB1F62178A
:1013700073078407BA0720F0621B730B840BBA0B48
:10138000EE1F88F7E09508950E949E0A88F09F5707
:1013900098F0B92F9927B751B0F0E1F0660F771F99
:1013A000881F991F1AF0BA95C9F714C0B13091F08F
:1013B0000E94B80AB1E008950C94B80A672F782FFC
:1013C0008827B85F39F0B93FCCF386957795679554
:1013D000B395D9F73EF490958095709561957F4FC0
:1013E0008F4F9F4F0895E89409C097FB3EF4909566
:1013F0008095709561957F4F8F4F9F4F9923A9F0EE
:10140000F92F96E9BB279395F6958795779567957C
:10141000B795F111F8CFFAF4BB0F11F460FF1BC0C0
:101420006F5F7F4F8F4F9F4F16C0882311F096E953
:1014300011C0772321F09EE8872F762F05C0662301
:1014400071F096E8862F70E060E02AF09A95660FBA
:10145000771F881FDAF7880F9695879597F9089573
:10146000E894F92F96EBFF2381F012161306140669
:10147000440B9395F69587957795679557954040DA
:10148000FF23B9F71BC099270895882351F498507A
:10149000D2F7872B762F652F542F432F322F20E042
:1014A000B1F3121613061406440B88233AF09A95EA
:1014B000440F551F661F771F881FCAF755234AF42C
:1014C000440F551F11F460FF04C06F5F7F4F8F4FB3
:1014D0009F4F880F9695879597F9089597F99F677D
:1014E00080E870E060E008959FEF80EC08950024AC
:1014F0000A941616170618060906089500240A9479
:1015000012161306140605060895092E0394000CFE
:1015100011F4882352F0BB0F40F4BF2B11F460FF8D
:1015200004C06F5F7F4F8F4F9F4F089557FD9058B6
:10153000440F551F59F05F3F71F04795880F97FB97
:10154000991F61F09F3F79F0879508951216130651
:101550001406551FF2CF4695F1DF08C01616170680
:101560001806991FF1CF86957105610508940895B5
:10157000E894BB2766277727CB0197F908950E9447
:10158000310B08F48FEF08950E94D70A0C94850A56
:101590000E94770A38F00E947E0A20F0952311F00D
:1015A0000C946E0A0C94740A11240C94B90A0E94CB
:1015B000960A70F3959FC1F3950F50E0551F629FF7
:1015C000F001729FBB27F00DB11D639FAA27F00D9C
:1015D000B11DAA1F649F6627B00DA11D661F829FC3
:1015E0002227B00DA11D621F739FB00DA11D621FA8
:1015F000839FA00D611D221F749F3327A00D611DC5
:10160000231F849F600D211D822F762F6A2F1124A6
:101610009F5750409AF0F1F088234AF0EE0FFF1FD9
:10162000BB1F661F771F881F91505040A9F79E3F30
:10163000510580F00C946E0A0C94B90A5F3FE4F3F4
:10164000983ED4F3869577956795B795F795E79586
:101650009F5FC1F7FE2B880F911D9695879597F98F
:101660000895990F0008550FAA0BE0E8FEEF161633
:101670001706E807F907C0F012161306E407F50786
:1016800098F0621B730B840B950B39F40A2661F0FA
:10169000232B242B252B21F408950A2609F4A1409D
:1016A000A6958FEF811D811D0895EE0FFF1F881FE6
:1016B0008BBF0790F691E02D19942A193B094C092C
:1016C0005D096E097F09800B910B0895F894FFCF97
:1016D000550355035503550355035503550355034A
:1016E00000000000EC03560383033904B4039203A3
:0216F000A6034F
:00000001FF
