:100000000C944A010C94D6040C94AB040C94800418
:100010000C9455040C942A040C94FF030C94D40300
:100020000C94A9030C946B010C946B010C946B0160
:100030000C946B010C946B010C946B010C946B0190
:100040000C946B010C946B010C946B010C946B0180
:100050000C946B010C946B010C946B010C945F037A
:100060000C946B010C946B010C946B010C946B0160
:100070000C946B010C946B010C946B010C946B0150
:100080000C946B010C946B010C946B010C946B0140
:100090000C946B010C946B010C946B010C946B0130
:1000A0000C946B010C946B010C946B010C946B0120
:1000B0000C946B010C946B010C946B010C946B0110
:1000C0000C946B010C946B010C946B010C946B0100
:1000D0000C946B010C946B010C946B010C946B01F0
:1000E0000C946B010C94DE020C9491020C94EA02C5
:1000F0000C94AA010C9469020C94B0010C94D202E5
:100100000C9436030C944C020C9485020C94A902B6
:100110000C9491010C945D020C94CB010C9495010C
:100120000C94C6010C949D010C9447020C9475022A
:100130000C94B8010C949D020C947D020C94D00197
:100140000C94F6020C94C6020C94A0010C9451027B
:100150000C94A6010C9437030C94CC010C94BA02B5
:100160000C94BE010C948B010C94B4010C94C2014C
:100170000C94990100002100240027002A002D0082
:100180003000330001010000040107010A010000F2
:100190002200250028002B002E003100340002012F
:1001A0000000050108010B010000200023002600CB
:1001B00029002C002F00320000010000030106017D
:1001C00009010505050507050808080802020202DD
:1001D0000A0A0808040404040101010101010101E3
:1001E0000303030303030303040707070C0C0C0CAE
:1001F0000C0C0C0C02020202060606060606060697
:100200000B0B0B0B0B0B0B0B010210202008081023
:100210002040102040800201020108040201010276
:10022000040810204080804020100804020180044F
:1002300002018040201008040201080402010102AA
:1002400004081020408001020408102040800000B3
:100250000A0B02090C0D0E08070304010000000040
:10026000000000000000000000000000000000008E
:10027000000000000000000000001211100000004B
:10028000000000000000000000000000000000006E
:100290000000000011241FBECFEFD1E2DEBFCDBFB2
:1002A00000E00CBF12E0A0E0B2E0E8EEFBE000E00E
:1002B0000BBF02C007900D92A031B107D9F722E021
:1002C000A0E1B2E001C01D92A132B207E1F70E94A5
:1002D00001050C94F2050C9400008150823108F065
:1002E0005AC0E82FF0E08827E758FE4F8F4F0C9454
:1002F000EA0599019D018B0191019501CB01A001B6
:10030000A601AA01B001B401B801BE01C201CB012E
:10031000C601CC01D001809180008F77809380004E
:100320000895809180008F7DF9CF80918000877F34
:10033000F5CF84B58F7784BD089584B58F7DFBCFCD
:100340008091B0008F778093B00008958091B000C5
:100350008F7DF9CF809190008F77809390000895E2
:10036000809190008F7DF9CF80919000877FF5CFAD
:100370008091A0008F778093A00008958091A000C5
:100380008F7DF9CF8091A000877FF5CF80912001EC
:100390008F77809320010895809120018F7DF9CF80
:1003A00080912001877FF5CFCF93DF93E1E5F2E0E5
:1003B0008491EBE0F2E0D491E5ECF1E0C491CC2340
:1003C000A1F081110E946D01EC2FF0E0EE0FFF1FF4
:1003D000E855FE4FA591B491EC91ED2381E090E0BA
:1003E00009F480E0DF91CF91089580E090E0FACFAA
:1003F0001F93CF93DF93282F30E0F901E25BFD4F8D
:100400008491F901E85FFD4FD491F901EE53FE4F5D
:10041000C491CC23A9F0162F81110E946D01EC2FFD
:10042000F0E0EE0FFF1FE257FE4FA591B4918FB79A
:10043000F894EC91111108C0D095DE23DC938FBFA6
:10044000DF91CF911F910895DE2BF8CF282FE4E59F
:10045000F2E0E491E150E23108F0C8C0F0E0882712
:10046000EB5CFD4F8F4F0C94EA0547024C025102A2
:100470005D026902F60275027D02850291029D020B
:10048000A902BA02C602F602D202DE02EA0284B56C
:10049000806884BD27BD089584B5806284BD28BD71
:1004A000089580918000806880938000422F592FAA
:1004B0005093890040938800089580918000806265
:1004C00080938000422F592F50938B0040938A00D5
:1004D000089580918000886080938000422F592F7A
:1004E00050938D0040938C0008958091B0008068F7
:1004F0008093B0002093B30008958091B000806293
:100500008093B0002093B40008958091900080689B
:1005100080939000422F592F509399004093980058
:10052000089580919000806280939000422F592F0F
:1005300050939B0040939A000895809190008860AA
:1005400080939000422F592F50939D0040939C0020
:1005500008958091A00080688093A0008091A00001
:100560008F7B8093A000422F592F5093A900409376
:10057000A80008958091A00080628093A000422F7F
:10058000592F5093AB004093AA0008958091A0008A
:1005900088608093A000422F592F5093AD00409364
:1005A000AC00089580912001806880932001422F43
:1005B000592F5093290140932801089580912001DB
:1005C000806280932001422F592F50932B0140933A
:1005D0002A01089580912001886080932001422F94
:1005E000592F50932D0140932C01089560E086E02F
:1005F0000C94F801CF93DF9390E0FC01E85FFD4F8E
:1006000024918E539E4FFC0184918823C9F090E081
:10061000880F991FFC01EC58FE4FA591B491FC0185
:10062000E257FE4FC591D49161110DC09FB7F89468
:100630008C91209582238C938881282328839FBFC7
:10064000DF91CF910895623051F49FB7F8943C91B7
:10065000822F809583238C93E8812E2BEFCF8FB749
:10066000F894EC912E2B2C938FBFEACF08950E9423
:10067000D401892BA1F48091140290911502A091CC
:100680001602B09117020196A11DB11D80931402AC
:1006900090931502A0931602B093170208950E943A
:1006A000D4010197D9F78091140290911502A0917D
:1006B0001602B09117020197A109B109E7CF1F9265
:1006C0000F920FB60F9211242F933F938F939F9306
:1006D000AF93BF9380911D0290911E02A0911F02C3
:1006E000B091200230911C0223E0230F2D3758F5E2
:1006F0000196A11DB11D20931C0280931D029093B1
:100700001E02A0931F02B0932002809118029091C4
:100710001902A0911A02B0911B020196A11DB11DF0
:100720008093180290931902A0931A02B0931B02AF
:10073000BF91AF919F918F913F912F910F900FBEDD
:100740000F901F90189526E8230F0296A11DB11D4A
:10075000D2CF1F920F920FB60F9211240BB60F92A9
:100760002F933F934F935F936F937F938F939F93B9
:10077000AF93BF93EF93FF93E0910E02F0910F02BE
:100780001995FF91EF91BF91AF919F918F917F91BB
:100790006F915F914F913F912F910F900BBE0F90F2
:1007A0000FBE0F901F9018951F920F920FB60F92C9
:1007B00011240BB60F922F933F934F935F936F9338
:1007C0007F938F939F93AF93BF93EF93FF93E091AA
:1007D0000C02F0910D021995FF91EF91BF91AF912D
:1007E0009F918F917F916F915F914F913F912F9149
:1007F0000F900BBE0F900FBE0F901F9018951F9279
:100800000F920FB60F9211240BB60F922F933F93B6
:100810004F935F936F937F938F939F93AF93BF9308
:10082000EF93FF93E0910202F09103021995FF917B
:10083000EF91BF91AF919F918F917F916F915F9158
:100840004F913F912F910F900BBE0F900FBE0F90C5
:100850001F9018951F920F920FB60F9211240BB68E
:100860000F922F933F934F935F936F937F938F9349
:100870009F93AF93BF93EF93FF93E0910002F091AA
:1008800001021995FF91EF91BF91AF919F918F91C7
:100890007F916F915F914F913F912F910F900BBE80
:1008A0000F900FBE0F901F9018951F920F920FB6CA
:1008B0000F9211240BB60F922F933F934F935F9398
:1008C0006F937F938F939F93AF93BF93EF93FF9318
:1008D000E0910A02F0910B021995FF91EF91BF91FF
:1008E000AF919F918F917F916F915F914F913F91C8
:1008F0002F910F900BBE0F900FBE0F901F90189569
:100900001F920F920FB60F9211240BB60F922F93D6
:100910003F934F935F936F937F938F939F93AF9387
:10092000BF93EF93FF93E0910802F09109021995AC
:10093000FF91EF91BF91AF919F918F917F916F91B7
:100940005F914F913F912F910F900BBE0F900FBE73
:100950000F901F9018951F920F920FB60F921124AF
:100960000BB60F922F933F934F935F936F937F93A9
:100970008F939F93AF93BF93EF93FF93E091060202
:10098000F09107021995FF91EF91BF91AF919F915F
:100990008F917F916F915F914F913F912F910F9028
:1009A0000BBE0F900FBE0F901F9018951F920F92C5
:1009B0000FB60F9211240BB60F922F933F934F93C4
:1009C0005F936F937F938F939F93AF93BF93EF93B7
:1009D000FF93E0910402F09105021995FF91EF91C8
:1009E000BF91AF919F918F917F916F915F914F9147
:1009F0003F912F910F900BBE0F900FBE0F901F9045
:100A00001895789484B5826084BD84B5816084BD76
:100A100085B5826085BD85B5816085BD80916E009C
:100A2000816080936E0010928100809181008260CD
:100A3000809381008091810081608093810080910A
:100A400080008160809380008091B10084608093F9
:100A5000B1008091B00081608093B00080919100DE
:100A600082608093910080919100816080939100D9
:100A7000809190008160809390008091A1008260BD
:100A80008093A1008091A10081608093A10080915A
:100A9000A00081608093A0008091210182608093FA
:100AA00021018091210181608093210180912001A9
:100AB00081608093200180917A00846080937A0025
:100AC00080917A00826080937A0080917A008160C0
:100AD00080937A0080917A00806880937A001092E7
:100AE000C10061E084E00E94FA0261E085E00E94BA
:100AF000FA0261E086E00E94FA0262E082E00E946F
:100B0000FA0260E082E00E94FA0287E393E09093A9
:100B100001028093000280916A008C7F8260809342
:100B20006A00EC9A61E087E00E94FA028AEAC82E25
:100B3000D12CE12CF12CC0E0D0E0809114029091F6
:100B40001502A0911602B0911702809310029093A3
:100B50001102A0931202B0931302A7019601281B61
:100B6000390B4A0B5B0BDA01C90161E01816190653
:100B70001A061B066CF486E00E94FA0284E690E0F6
:100B80000E94260261E085E00E94F80160E010C04A
:100B9000892B8A2B8B2BA9F086E00E94FA0284E62F
:100BA00090E00E94260260E085E00E94F80161E08A
:100BB00084E00E94F801209709F4BFCF0E94000052
:100BC000BCCF86E00E94FA0260E086E00E94F80155
:100BD00060E0D9CFEE0FFF1F881F8BBF0790F69103
:080BE000E02D1994F894FFCFF9
:100BE8003603360336033603360336033603360335
:00000001FF
